:020000040001F9
:10B00000B82E0020FDB1010017B2010019B20100F5
:10B010000000000000000000000000000000000030
:10B020000000000000000000000000001BB2010052
:10B0300000000000000000001DB201001FB201006E
:10B0400021B2010021B201002DD3010079D201000B
:10B0500021B201000000000021B2010021B2010074
:10B0600021B2010021B2010021B2010021B2010090
:10B0700021B2010021B2010021B2010021B2010080
:10B0800021B2010021B2010021B2010021B2010070
:10B0900021B2010021B2010021B2010021B2010060
:10B0A00021B2010021B201000000000000000000F8
:10B0B0000000000000000000000000000000000090
:10B0C00000F002F800F04EF80CA030C80838241840
:10B0D0002D18A246671EAB4654465D46AC4201D1D0
:10B0E00000F040F87E460F3E0FCCB64601263342B4
:10B0F00000D0FB1AA246AB4633431847C43E0000BB
:10B10000E43E0000103A02D378C878C1FAD852075A
:10B1100001D330C830C101D504680C60704700000D
:10B120000023002400250026103A01D378C1FBD863
:10B13000520700D330C100D50B60704710B56629A7
:10B1400002D103F03BFE10BD002010BD1FB501F081
:10B15000F1FA04000020002103F08EFDE0601FBD25
:10B1600010B510BD01F0F4FE1146FFF7EFFF02F03D
:10B17000CFFB01F00CFF03B4FFF7F2FF03BC02F0BA
:10B1800082FA0000401E00BF00BF00BF00BF00BF2A
:10B1900000BF00BF00BF00BF00BF00BF00BFF1D1B4
:10B1A00070470000401E00BF00BF00BF00BF00BFCF
:10B1B00000BF00BF00BF00BF00BF00BF00BFF1D194
:10B1C0007047000070B505460C46164602E00FCCED
:10B1D0000FC5103E102EFAD2082E02D303CC03C5A1
:10B1E000083E042E07D301CC01C5361F03E02178A9
:10B1F0002970641C6D1C761EF9D270BD03210C48A9
:10B2000002680A4302600B4802680A4302600A4867
:10B2100080470A480047FEE7FEE7FEE7FEE7FEE755
:10B22000FEE7000006480749074A084B7047000040
:10B2300024050040540500408DD20100C1B001003A
:10B24000B81E0020B82E0020B8260020B826002006
:10B25000704700000FB41CB5074B06AA7B44694633
:10B260000090059800F039FE0020694600F048FE85
:10B270001CBC08BC04B01847A10C000070B5044603
:10B2800085690068C10601D5302600E02026C00788
:10B2900007D070BD62683046A1689047206A401CA4
:10B2A00020626D1EF6D570BD70B5044685690078C4
:10B2B000C00707D170BD6268A16820209047206A4E
:10B2C000401C20626D1EF6D570BDF3B5044600200B
:10B2D00081B020622046E168884700287AD025287E
:10B2E00002D06268A16871E0E168204600258847C5
:10B2F00006460020E0610746A0612A2E0AD03046AB
:10B3000002F0BAF9002827D0B8000019303E0090AA
:10B31000866119E00298BA00121902C89161029080
:10B320002046E1688847012F064617D1E0690028CA
:10B330001FDA202085431CE000980A2180694843D9
:10B3400000998019303888612046E16888470646B0
:10B3500002F092F90028EFD1012F0AD02E2E08D149
:10B360002046E16888470646202005437F1C022FBF
:10B37000C3DBA069002803DA4042A0610120054335
:10B38000E80701D010208543002E23D030464138F5
:10B39000192803D80120C002054320362046256025
:10B3A0003146029A1546FFF7C9FE00280BD0012846
:10B3B00006D0ED1DE808C000083002908AE709E0D9
:10B3C0002D1D029586E762683046A1689047206A85
:10B3D000401C7EE7206AFEBDF8B5042A2CD3830703
:10B3E00012D00B78491C0370401C521E83070BD0EF
:10B3F0000B78491C0370401C521E830704D00B7845
:10B40000491C0370401C521E8B079B0F05D0C91AA4
:10B41000DF002023DE1B08C90AE0FFF7D3FEF8BDDA
:10B420001D4608C9FD401C46B4402C4310C0121FE5
:10B43000042AF5D2F308C91A521EF0D40B78491C1D
:10B440000370401C521EEAD40B78491C0370401C48
:10B45000012AE4D409780170F8BD0000024670B5F5
:10B460000A4392072AD11E4DEE0104C808C9541B95
:10B470009443344017D0D0B2D9B2401A21060143C8
:10B4800010D190B299B2401A210401430AD110029E
:10B490001902000A090A401A2102014302D1100EC2
:10B4A000190E401A70BD9A42DFD010BA19BA8842FC
:10B4B00001D9012070BD0020C04370BD02780B7817
:10B4C000401C491C002A09D09A4207D102780B7807
:10B4D000401C491C002A01D09A42EFD0D01A70BDFE
:10B4E00001010101002203098B422CD3030A8B4284
:10B4F00011D300239C464EE003460B433CD400226C
:10B5000043088B4231D303098B421CD3030A8B427D
:10B5100001D394463FE0C3098B4201D3CB01C01A4B
:10B52000524183098B4201D38B01C01A5241430916
:10B530008B4201D34B01C01A524103098B4201D304
:10B540000B01C01A5241C3088B4201D3CB00C01A71
:10B55000524183088B4201D38B00C01A52414308E9
:10B560008B4201D34B00C01A5241411A00D201460E
:10B570005241104670475DE0CA0F00D049420310A7
:10B5800000D34042534000229C4603098B422DD3F6
:10B59000030A8B4212D3FC22890112BA030A8B429E
:10B5A0000CD3890192118B4208D3890192118B42ED
:10B5B00004D389013AD0921100E08909C3098B4272
:10B5C00001D3CB01C01A524183098B4201D38B01B5
:10B5D000C01A524143098B4201D34B01C01A524158
:10B5E00003098B4201D30B01C01A5241C3088B429D
:10B5F00001D3CB00C01A524183088B4201D38B0088
:10B60000C01A5241D9D243088B4201D34B00C01A11
:10B610005241411A00D20146634652415B10104626
:10B6200001D34042002B00D54942704763465B106E
:10B6300000D3404201B50020C046C04602BD70475D
:10B64000704770470246C80FC00781434B0030B5B2
:10B650004B405B009B0D20D01923DB06C91801234A
:10B660001B05994220DB0324A40704251346AB40A5
:10B670000BD3002B04D1EB0613409B00E34204D410
:10B6800001246407002312195941FF231B05994225
:10B690000BD2C9000143500F09E0CB0204D501438E
:10B6A0000803024305D0054830BDFF21C905084302
:10B6B00030BD084607210905884330BD0000C07F22
:10B6C0001F22030C02D10F22000402D0030E03D06C
:10B6D00004E00020014670470002083A030F01D140
:10B6E0000001121F830F01D18000921E002801DB90
:10B6F0004000521E120551184205C0124118104652
:10B700007047C10FC90700D0404201229207114380
:10B71000D6E701218907D3E7F0B58B4C0F09254601
:10B7200089B0BD437BD01D092646AE43FAD00E46F4
:10B730005E402740F60F3E43254071D02401214250
:10B74000FBD0FF24AD19A4042D1B039501252D0565
:10B75000DB02DB0AC9022B43C90A29431E01090186
:10B76000040F130F050121431701880B8203914336
:10B770002D098C46A90B1E438A039543B30B9A03EC
:10B7800096433F09BA0B9403A74302962E467E4385
:10B790000497B6464E19D7190C460196544305979F
:10B7A0007E43371B7646BF1B3601B646BE0B3619A5
:10B7B00000967646BC043719009C01D3641C0094A3
:10B7C0006400002F01D001263443029E049F75437C
:10B7D00066467E430496760034196E003419009450
:10B7E000029C019E1C196643751BAE460694654675
:10B7F0004519059C05956C43594375460891691A8E
:10B800000191049E01465143A41B0491611A009CBE
:10B810000791E10605D061090122114302E072E0BF
:10B820006EE06109089D00272C0A2D066918049D09
:10B830007C412A0A2D066918019D6241AC0DAD02BA
:10B840006D185441079A910D920255196141029A5F
:10B85000644658435443069B059A5A43121A131BD5
:10B860009A0E9B015B187A41010B0005C3185141E8
:10B87000220A200644195A419A4200D2491C01204A
:10B880004002814203D315230226F64302E014232B
:10B890000326F6432020C51AA9401746AF40DA40D8
:10B8A0000A4320460399D840091473181905511802
:10B8B000039A3843D2075140AC4009D0012294404A
:10B8C00006D30022401C5141002C01D14008400009
:10B8D0001E4A934212D3012203989206904207DB3C
:10B8E0000520400709181A480143C012414004E0EE
:10B8F000032040070818C10FC907002009B0F0BD98
:10B900000020F107FAE705180C464C4111486D423A
:10B91000A04115D394181A465A410E4864429041EA
:10B920000ED301204A004005824209D35A008242C8
:10B9300006D35940C90F084AC90700201143DDE763
:10B9400000200649DAE700000000FF07FE070000BC
:10B95000FFFFFF7F0000E0FF0000F07F0000F87FA6
:10B960000121C9050123411842001B06D3185B0EB3
:10B970000AD0C1100722D206891840075242D1428C
:10B9800001D5520089187047090208D50146002ADE
:10B9900003D0C10FC907002070471046704742020C
:10B9A00002D0002002497047072109050143F4E74E
:10B9B0000000F87F10B501469E240002CA15A307B7
:10B9C000002A02D01843002A04DBA21A002A0CDD48
:10B9D000D04010BD1206120E01D140004008A21A3C
:10B9E00003D4D04040420028F3DDFF224800120675
:10B9F000904201D9002010BDC817C043584010BD67
:10BA00001F22030C02D10F2200041CD0030E01D10F
:10BA10000002083A030F01D10001121F830F01D168
:10BA20008000921E002801DB4000521ED2055118F2
:10BA3000021251181922904004D3491C002801D148
:10BA40004908490008467047C10FC90700D0404265
:10BA5000012292071143D3E701218907D0E70000B3
:10BA600010B5FF22C30D134009D05A4007D09142B0
:10BA700005DA5C42A14202DDC905081810BDC40FF9
:10BA8000E407002B06D0002A06D0002902DBFF20A5
:10BA9000C0050443204610BD4102FCD0004810BD43
:10BAA0000000C07F704710B500F048FE006810BD70
:10BAB00010B5044600F042FE046010BD7047FFB5AB
:10BAC0000C461E468FB003CA089009914F007D0DA9
:10BAD00000D16D1E002108460020C0460321099AAE
:10BAE00089050840002A03DA8200801840080840CF
:10BAF000800D01280A9002DD0020C0430A900898BA
:10BB000007430DD0EF48F049281848430714189808
:10BB100000281DD07542291E1DDD0A9842421BE0F7
:10BB20001898012802D00020302104E00020F243C0
:10BB300005E02154401CB042FBDB30460022189B3C
:10BB4000002121540F998B600A60486013B0F0BD4A
:10BB5000BD1B6D1CDFE70A9A002900DA69420BA8B9
:10BB600000F072FE0BAB07CB03AB07C30899099833
:10BB700000F0CEFE6B4607C30146D4480918002DDD
:10BB800000910ADDD14903980A9A4942401803A955
:10BB90000390684601F0E1F807E003990A9A081853
:10BBA00003A90390684601F0AEF86B4607C3000492
:10BBB000000C03D00020C043410800E01046189A52
:10BBC000002A03D00022009215461EE0751E05D4FF
:10BBD00000F0B8FD303262556D1EF9D501220843E0
:10BBE000079602D000227F1C04E02078302801D183
:10BBF00000227F1E002A069789D01EE0112D07DA49
:10BC000000F0A0FD303262556D1C02460A43F5D1AA
:10BC1000084303D00098002819D00EE00021681EC8
:10BC200005E0235C625C63542254401E491C81423F
:10BC3000F7DBA81B401E07950690079A189900206D
:10BC4000A0540F98079B069A81600CC07EE71126CE
:10BC5000002018905BE7D21DF0B50D460446D108D0
:10BC600093B0C90003C90C900D9101F06FFC02461E
:10BC70000D98C00F01D02D2007E02068810701D565
:10BC80002B2002E04007C00F4001032A0F9001D093
:10BC9000072A05DB03462946204600F091FD0EE108
:10BCA0002078800601D5E76900E006272846652D43
:10BCB00004D0662814D0672D69D12DE00020112F03
:10BCC000009001DB112300E07B1C0CAA03A910A843
:10BCD000FFF7F5FE1199002610987D1C0E9142E0A9
:10BCE00001203B460CAAC0070B900120009003A93D
:10BCF00010A8FFF7E4FE119D129810990026002865
:10BD00000E9501D1781C0D18781B02D446427D1C7B
:10BD1000761EE81B00903AE0012F00DA0127002090
:10BD2000112F009001DD112300E03B460CAA03A96E
:10BD300010A8FFF7C4FE11993D46109800260E91F9
:10BD4000217809070BD40E99A94200DA0D4603A900
:10BD5000012D04DD4A19203AD27F302A06D0B8429C
:10BD600001DA011D04DA012100910FE06D1EEFE7F9
:10BD7000002802DC86192D1A03E0411CA94200DDCF
:10BD80000D46801B401C00900120C0070B902078BE
:10BD9000000705D40098A84202DB0020C0430090B1
:10BDA00069460020C8720B98012102AF0337C9070A
:10BDB000884225D0022010902B2011900B9800284B
:10BDC0000BDA40420B902D20119006E00B9800F00A
:10BDD0009CF830317F1E0B9039701099481E002955
:10BDE0001090F3DC0B980028F0D111987F1E38706A
:10BDF0002088000501D5452000E065207F1E3870B1
:10BE000001A8C01BC01D0B900F98002800D0012076
:10BE100041190098C01709180B980818A169081A49
:10BE2000401EA0612078C00602D42046FFF726FA03
:10BE30000F98002805D06268A1689047206A401CCE
:10BE400020622078C00625D52046FFF717FA21E0AA
:10BE5000002E07DB0E98B04204DD03A86268805D07
:10BE6000A16802E06268A16830209047206A761CD1
:10BE7000401C20620098401E002800900AD100F06B
:10BE800059FCC06862680168405CA1689047206AFC
:10BE9000401C206228466D1E0028D9DC07E062683D
:10BEA0003878A1687F1C9047206A401C20620B995B
:10BEB000481E00290B90F2DC2046FFF7F5F903201D
:10BEC00044E6000001FCFFFF104D0000E1DFFFFF32
:10BED00001694A1C02610878704700B58FB0029171
:10BEE000002105910549019379440391114604907D
:10BEF0006846FFF7EAF90FB000BD0000E5FFFFFF5D
:10BF00000A681070521C0A60704701468008081ABF
:10BF100002091018020A1018020C1018C00882003A
:10BF200012185200891A01E0401C0A390A29FBD272
:10BF300070470000F0B50C46871A9C410D46861AE2
:10BF40009D4103D2C01BA141D21963410D0D1F0DAC
:10BF5000C94EEC1BAE435CD07F057F0D0026002F41
:10BF600051D02D05AC46A943DD020123ED0A1B0586
:10BF70001D4320231B1B24D41746E740381871416A
:10BF80002F46E740CC199D402818314661410C0DE1
:10BF900027D161449A4013D50023401C59415200D7
:10BFA0000ED14008400001224B005205D34207D376
:10BFB00005204007C14201D5B04900E0B0493046F4
:10BFC000F0BD6B00002A00D001229A181F23203CEC
:10BFD0001B1B01D5002302E0E540281871410C0D20
:10BFE000D7D0012424050919C407CD074008490802
:10BFF000E40F28436144002CD5D00024401C61414B
:10C000009A40D0D1CDE76A05520DD9D1C90FC907E1
:10C01000D5E79C4D4E00002801D0012400E000240B
:10C0200034195F00002A01D0012600E00026BE1965
:10C03000954FAC420CD8AE420AD8B44206D0012586
:10C040006D05EC42BCD010461946F0BD9942FCD0BB
:10C0500000203946F0BDF0B51FB40C460F46811ADA
:10C060009F412546861A9D4106D20125ED076F4066
:10C07000401ABC4152187B41210D1E0D8D1BAC4650
:10C080007D4D8D437ED075056D0D7CD00D05AE4682
:10C09000AC431B031B0B794D52429D412023664646
:10C0A0009B1B14D31746F7403818002600907441A4
:10C0B00060462F460741E41900989D4028186641C4
:10C0C00016D4714671189A4025D5012320E09318A3
:10C0D0002A466A415200002B00D0521C1E23203EEB
:10C0E0009B1B002B61DD3541EE1728186641E8D512
:10C0F000001876415B1C9A4000D3401C4B05F31896
:10C100001524E34010D3002B52D071467118D30F81
:10C11000C01802D3491C05B0F0BD0123DB079A42C9
:10C12000F9D140084000F6E701225205B21801D1CA
:10C13000002853D00123CC0ADB029943891E002A30
:10C1400008D1020C03D0020C0004103902E00246B0
:10C15000002020390023550B05D112020823550B6E
:10C1600001D152010D23550C01D112011B1DD50C1B
:10C1700001D192009B1C150D01D152005B1C2025A2
:10C18000EE1A01E02CE022E00546F5401543984008
:10C19000CA1AE10769181305C918002ABBDA032077
:10C1A00040070818C10FC9070FE071466118B2E7D0
:10C1B000F10740080843711071444A000CD0012374
:10C1C0005B059A42A7D2C90FC9070020A3E749051A
:10C1D000490D26D1002001E00028F4D100219AE782
:10C1E000284D6600002801D0012100E000217118CF
:10C1F0005F00002A01D0012600E00026BE19224F70
:10C20000A94210D8AE420ED8B14208D001256D0522
:10C21000E94206D01946A802414010467BE79C42FD
:10C2200001D0214677E70020394674E710B50C4667
:10C230005C4005D50124E4076340FFF70CFF10BD07
:10C24000FFF778FE10BD30B40C465C4004D50124E5
:10C25000E407634030BC6DE630BCFCE670B50124F9
:10C26000E40761400D465D4002D4FFF763FE70BDF8
:10C270006340FFF7F0FE70BDFF0700000000F0FF15
:10C280000000F07F0000E0FF0000F87FF0B5F94DFE
:10C290000C091E092C402E402F468BB0A7437DD0A1
:10C2A000B543FCD0002E7AD0002CFCD00D465D406A
:10C2B000ED0F2543AC1BFF25AD0464190894C5029E
:10C2C000440DC9022143500DDC0204430120C00784
:10C2D00001430443D2020191200C110C00958C46BD
:10C2E000010423468B430A9161460904E24D8A43C7
:10C2F0000991010A7D4449198039097805464D4361
:10C3000001266D18F605751B6943C90C640B891C61
:10C310004C436418B5012C1B250C2E04B4434C432C
:10C320004D43210C691889090591009DE90701D049
:10C330000121C90704912C4601996708CD072F43B5
:10C340004C08059DE10B4D432D0C2946664675436F
:10C3500002950D4645432E46029D7D1BB441009536
:10C360000D465D4301942C0C2F040D465543AE46FB
:10C370002D0C3D43029503947546049C2D04641BCB
:10C38000049406D2029C039D641C0026754103950B
:10C39000029401AC70CC009F7D1B01E03EE162E1A4
:10C3A000B44109040095079101940599A4086143DB
:10C3B000090C0C464443650BE7040C46664674437F
:10C3C000A646640B3C43039502947446049DE40422
:10C3D0002C1B049406D2029C039D641C002675410C
:10C3E0000395029401AC70CC009F7D1BB441019475
:10C3F0000C465C430095650FE7000C465443A64687
:10C40000640F3C43039502947446049DE4002C1B86
:10C41000049406D2029C039D641C0026754103957A
:10C42000029401AC70CC009F7D1BB441AE09AF06F5
:10C43000049DC900AD092F43049DA406AD060495D3
:10C44000079D344369180791059DE10B4D432D0C61
:10C4500029466646754302950D4645432E46029D84
:10C460007D1BB44100950D465D4301942C0C2F04B7
:10C470000D465543AE462D0C3D430295039475463B
:10C48000049C2D04641B049406D2029C039D641C2E
:10C49000002675410395029401AC70CC009F7D1B72
:10C4A000B44101948C050694079C890A6118009593
:10C4B0000791019C0599A4086143090C0D46454369
:10C4C000680BEF040D46644665436C0B3C43049FC8
:10C4D000ED047D1BAC4602D20025641C6841009E21
:10C4E000019D371B85410846584301950C46460F70
:10C4F000C5005443600F28436546E4002C1B02D25C
:10C500000025401C6E41019D3F1AB5412846BD09DA
:10C51000800628438446A009BF064E020699A40659
:10C5200076180743079D002068410A990790194330
:10C530000020099B00906046FF1913434041E20F21
:10C5400064003A43A4460446D71A8C41A04203D95A
:10C550000120009020463A46C70F94184041624699
:10C56000D20F2243644664000494009CBE466400DB
:10C57000D71AA446044602978C417746002F01D172
:10C58000A04204D96046401C8446029A2046C40F4B
:10C59000A64694184041049A0546D20F22436446A9
:10C5A0006400D31A8D417146002901D1A84202D9F5
:10C5B00028461A46641C10430122002800D0164366
:10C5C00061020020079B891904465C410223002C6C
:10C5D00002DB491813466441089DCE0A2D145D19EB
:10C5E0004B056705E10A2C050D1908993E43C9075B
:10C5F0006940002B08D0934006D30022761C51419D
:10C60000002B01D1760876001C4A002D43DB154231
:10C6100041D0AA433FD030460BB0F0BD06180D46BE
:10C620004D41174C7642AC411AD395181C465C41DB
:10C63000134A6D42A24113D3012252054C00D44249
:10C640000AD15C00D4420BD04B4002D59202114378
:10C65000E2E749004908DFE75940C90FC90718E078
:10C6600000200849D8E7054801420DD10342F7D020
:10C67000F2E700000000FF07A02B00000000F07FA1
:10C680000000E0FF0000F87F114859400143C0124C
:10C6900041400020C0E70123089A9B069A4205DC2E
:10C6A000032252078918C90FC907B5E705225207A7
:10C6B0008918074A1143D2125140ADE770B51546AB
:10C6C0001C4602460B4628462146FFF7DFFD70BD9B
:10C6D000FFFFFF7F70B505464800440D124B002058
:10C6E000002C0AD0634008D09A4206DA6642B24271
:10C6F00003DD12054019514170BD002C08D0002BFC
:10C7000009D0C90FC907002AF6DB084A114370BDDA
:10C71000C90FC90770BD28460A03104302D0002084
:10C72000034970BD284670BDFF0700000000F07F80
:10C730000000F87F00487047741E002000487047D2
:10C74000541E00200B4670B5024689078008084336
:10C7500019469D08141AA941250908070543080927
:10C760002C194841250A01060D43010A2C194141A3
:10C77000200C0D0428430D0C00194D4100214019D7
:10C780004D41C00869070843E908840F8D0025431F
:10C79000840024184D4124196D41121BAB4107E060
:10C7A0000925ED432C11521963410024401C6141BD
:10C7B0001C460A250026551BB441F1D270BD00006D
:10C7C000F8B51F46044601230068DB020326014634
:10C7D0001840072A05DB002801D017A506E017A599
:10C7E00004E0002801D016A500E016A51020814322
:10C7F0002160A069C01E002FA06101D0401EA06171
:10C800002046FEF73BFD002F09D038466268A1683C
:10C810009047206A401C2062C01C206206E0206A0B
:10C82000FAE762682878A1686D1C9047761EF8D2F6
:10C830002046FEF739FDF8BD4E414E006E616E0098
:10C84000494E4600696E6600F7B516468AB02F4815
:10C8500078446C4603467C33C06F5A689B680DC4AD
:10C860002A487844763003AC0DC80DC43720C00187
:10C87000081837211B30FEF73FFE05460C46803D69
:10C880001B3C02D56442012000E0002000270990F3
:10C890000FE0E0070BD00C201C4978437944324666
:10C8A0004C394118684600F02EFA6B4607C36410F5
:10C8B0007F1C002CEDD1154F7F442C3F15E0E8077D
:10C8C00011D02001C0190EC8069108930792006884
:10C8D000F04201D198190890324606A903A800F049
:10C8E00012FA03AB07C36D10641C002DE7D132466A
:10C8F00069460998002803A802D000F02EFA01E04A
:10C9000000F001FA0A9B07C30DB0F0BDCC26000071
:10C91000034640000A4610B5400D0BD00121C9075F
:10C920000F24A40200191C0364082143540D214361
:10C93000D20207E000210120F2E7D40F4900214391
:10C940005200401E0029F8DADB0FDB07184310BD48
:10C95000FFB50D46144685B04868516800F0DDFD0E
:10C9600000910190A868A16800F0D7FD02910390A2
:10C97000A868616800F0D1FD029A12188242029202
:10C9800001D2012000E00020019A0B18D2180028E3
:10C99000019202D08A4202D903E08A4201D20120E8
:10C9A00000E000200099081800906868A16800F075
:10C9B000B4FD029A12188242029201D2012000E0D4
:10C9C0000020019A0B18D2180028019202D08A4246
:10C9D00002D903E08A4201D2012000E00020009940
:10C9E000081800902868216840004900400849085C
:10C9F0004018EE49471814E001994000C90F084358
:10CA00000090019802994000C90F084301900298D4
:10CA100003994000C90F08430290039840007F1E0D
:10CA2000039000980028E7DA0898002801D0E04E2B
:10CA300000E00026B74228DAF71BF806C00E15D032
:10CA4000029B2021091A039A8B401A430392029AEF
:10CA5000019BC2408B401A430292019A009BC24044
:10CA60008B4000991A430192C14000917A110BD07A
:10CA70006B460320811A01D5002101E08900595835
:10CA80008700401ED951F5D53746039802990028F2
:10CA900000D00120014308980291002808460CD0DC
:10CAA000002800D001200199019A4905084301217D
:10CAB000D20AC902D202019200E001210E9B01229A
:10CAC000D207012B02D0002B03D013E0002807D19E
:10CAD00016E0904204D890420CD1019B0B4209D041
:10CAE000019B5918019105D10099491C009101D170
:10CAF0007F1C0092002803D0102108460020C04669
:10CB000028682168019B009A4840C10F0598C90711
:10CB100039430EC009B0F0BDFFB587B0099A089837
:10CB20000899536892684068896896460022039382
:10CB300017469446089A12685300099A5B081268CF
:10CB4000520052089A1A9B4BD4180A9A002A01D014
:10CB5000352200E04022069200220123154604926D
:10CB6000DB07059324E0002D05D175460346039E9F
:10CB70004D1BB34109D375466646039B491B049D73
:10CB80009841059B7519AC465F4163463B4308D00D
:10CB9000059B049EDD0776082E435B0804960593EB
:10CBA00001E0521E641EC50FED0749184041521C9A
:10CBB000069B9A42D7DB002D04D17546039A6B1A67
:10CBC000824101D203200CE0039A0B466B404240A5
:10CBD000134303D0014303D0012002E0022000E010
:10CBE0000020614601910021009702910A990029D5
:10CBF00005D06146400201436D4B019102E0800780
:10CC0000002302909C423ADA1A1BD006C00E15D0BF
:10CC1000029D2021019C091AC5408C402543029C9D
:10CC20008C4000D001242543019C02953D46C44020
:10CC30008D4039462C43C1400194009154111DD0C0
:10CC40006D460221002202290CD10320001B07E0BF
:10CC5000002804DB8600AE59002E00D00122401CC3
:10CC60000328F5DB081B02D588002A5004E0800069
:10CC7000285810438A00A850491EE3D51C460A983C
:10CC8000002802980CD0002800D001200199019AB8
:10CC9000490508430121D20AC902D202019200E0EB
:10CCA0000121109B0122D207012B02D0002B03D0BF
:10CCB00013E0002807D116E0904204D890420CD12E
:10CCC000019B0B4209D0019B5918019105D1009994
:10CCD000491C009101D1641C0092002803D010214E
:10CCE00008460020C04608980999019A006809681A
:10CCF00048400099C30F0798DB0723430360826015
:10CD000041600BB0F0BD1FB5002300920A460146FA
:10CD100001A8FFF71DFE01AB07CB04B010BD1FB586
:10CD2000012300920A46014601A8FFF711FE01AB5C
:10CD30000F2407CBA402C30F4000DB074008001BF1
:10CD4000002900DB0020490000054908CC0A2043E7
:10CD500049051843D20A1143DFE71FB500230092AB
:10CD60000A46014601A8FFF7D7FE01AB07CBD4E77F
:10CD70001FB5012300920A46014601A8FFF7CCFE29
:10CD800001AB0F2407CBA402C30F4000DB07400810
:10CD9000001B002900DB0020490000054908CC0ADF
:10CDA000204349051843D20A1143B6E702C0FFFFEA
:10CDB000013C0000FF3F0000F8B5224C4E00069DEC
:10CDC000A6420AD8A64201D1002806D15E00A6429A
:10CDD00003D8A6420AD1002A08D00D2424042542F3
:10CDE0002CD02946002000F0DAF8F8BD0C461C4390
:10CDF0000CD4994202D0EFF30080F8BD904202D0EB
:10CE0000EFF30080F8BDEFF30080F8BD092424079C
:10CE1000E5008B4206D0EFF30080A043591A06D2FA
:10CE2000284304E0101A05D3EFF30080A04380F3F9
:10CE30000088F8BDEFF30080A043F1E7009500F013
:10CE4000C5F8F8BD0000E0FFF0B53D4B02460C46CA
:10CE50001C400020002C63D03A4D8B4366D0002943
:10CE60006BDB0B0D1D05A94301252D05294301246D
:10CE7000FD33E34001D392184941FF3381339C468F
:10CE80008B02940D0121234389074C429202002713
:10CE90001B198C105D1A04D42D1B02D42B4665007F
:10CEA000491992185B416408F4D15C1A08D4012531
:10CEB000ED07EE175519744102D42A462346491C42
:10CEC00094185B41012292071D46E61B8D4106D452
:10CED000B61A854103D42B46550034467F192419D0
:10CEE0005B415208802AEFD1234300D00223384609
:10CEF0000A22D04001D3012213438A05104362461F
:10CF0000890A12058918002B09D00122D34002D3C7
:10CF10000022401C5141002B01D140084000F0BDCF
:10CF20000B03134307D0C90FC907F0BD0803104313
:10CF300003D1002901DB1046F0BD00202946F0BDD9
:10CF40000000F07F0000F87F00487047541E00206A
:10CF50007546FFF7F9FFAE46050069465346C0081F
:10CF6000C000854618B020B5FEF75CF960BC00270C
:10CF70004908B6460026C0C5C0C5C0C5C0C5C0C5A5
:10CF8000C0C5C0C5C0C5403D49008D46704710B5FD
:10CF90000446C046C0462046FEF7EDF810BDC80264
:10CFA00012D54803400F002804D0C803C043012114
:10CFB00088407047EFF30080000100090321090752
:10CFC000084380F3008870470020704710B50020A8
:10CFD0000249029A00F004F810BD00000000F87F3A
:10CFE00010B50C461107090F092904D00A290AD0E7
:10CFF00008290CD104E011460820FFF7D0FF06E015
:10D00000510606D501E0510601D50120C007214691
:10D0100010BDD10607D501010909CC084907000E4A
:10D020000006044309E0410F20024907000A0143BA
:10D03000200E00061D22D14101430846E7E700000B
:10D04000F7B518214843214916464418E16A880774
:10D05000800F02280BD0A06A626A801A401E01D598
:10D06000226A1018864202DD89072DD00646002E5E
:10D070002AD00027A06A616A451A6D1E01D5206A70
:10D080004519616A206A411AA94201DC616A451AA0
:10D09000B54200DB3546616AE0692A4640180199CD
:10D0A000FEF79AF901987F1940190190606A761B82
:10D0B00040196062606A216A884201D10020606282
:10D0C000002ED7D13846FEBD0020FEBD9C180020A2
:10D0D0000FB408B504A900916A46039900F004F85A
:10D0E00001B008BC04B01847F7B598B007A8029083
:10D0F000402000250495039018980C46059506904D
:10D100002178641C002974D0252907D002A800F0DA
:10D11000E5F905980028F3DA1BB0F0BD00210123E2
:10D120000227042208262078232817D02B2813D082
:10D130002D280DD030280DD0002220780346303B1A
:10D140000A2B0ED20A235A431218303A641CF4E711
:10D15000194304E0394302E0114300E03143641C09
:10D16000E1E70023C7B22E2F0AD1641C20780746BE
:10D17000303F0A2F04D20A277B431B18303BF4E7C9
:10D180006C280DD068280BD0702852D00BDC2528D5
:10D190005AD058282ED063280CD0642858D110E0DB
:10D1A0002078641CECE7732832D0752817D07828D3
:10D1B0004ED11FE01A981A9A0068011D116001787B
:10D1C00043E01A981A9F0068061D3E6000680191AE
:10D1D000009201460A2202A800F0ACF838E01A9842
:10D1E0001A9F0068061D3E600068009201910A22A5
:10D1F00009E02FE01A981A9F0068061D3E6000683B
:10D20000009201911022014602A800F0F5F81FE0FB
:10D210001A981A9A0068011D116006683178761C08
:10D22000002915D002A800F059F905980028F5DA70
:10D230000EE01A981A9A00680823011D116001680F
:10D24000102200960195DFE7252102A800F046F99B
:10D25000641C5EE70598002800DC5DE70498002860
:10D2600004D0024607A91898FFF7EAFE049905982A
:10D270004018059050E7000010B50249024800F040
:10D28000CDFA10BD001A00200030004010B500F0AB
:10D290001BFB002805D01F491D484860C8131E49C4
:10D2A00088611E48018CC9B201290BD1828C1207FA
:10D2B00008D1028D1206120F042A03D1828D1206A4
:10D2C000120F0AD0012921D1818C09071ED1018DAD
:10D2D0000906090F0A2904D007E0114A01219160CB
:10D2E000F5E7828D1206120F05D00D290ED1808D23
:10D2F0000006000F0AD10B480168012904D00A4931
:10D30000016001680129FCD1C021416110BD00000C
:10D31000DFFF07C000050040006C0040C00F00F0B8
:10D320000006004000EC06407593000010B501F0C7
:10D330000FFC10BDFFB583B00E4670420D9F0C9CD4
:10D340000090002900DB0846012502E0FEF7CAF83C
:10D350006D1C05998842F9D20698A84200D9054665
:10D36000002C04D0002E01DB780700D5641EB8071E
:10D3700002D50698002811D0F8070FD1002C0DD047
:10D380002046641EA84209D92021039800F0A6F87F
:10D390000398C0680028F1DA07B0F0BD002E02DA69
:10D3A0002D21009E02E0780707D52B21039800F07D
:10D3B00095F80398C0680028EEDBB807800F0228B4
:10D3C00011D1069800280ED1002C0CD02046641EE6
:10D3D000A84208D93021039800F080F80398C0686B
:10D3E0000028F1DAD8E7019700943146069B059AA8
:10D3F000039800F001F8CFE7FFB581B001271E4682
:10D400003D460A9C029802E0FEF76CF86D1C0399F9
:10D410008842F9D2AE4200D935460B98C0071CD1DC
:10D42000002C1AD00B98800701D5002E02D02020A6
:10D4300000900BE03020FBE70099019800F04EF8D7
:10D440000198C068002845DB002C06D02046641EE9
:10D45000A842F1D801E00398474339460298FEF705
:10D4600041F801460398814201D3012000E00020E9
:10D470003146761E012901DD012100E0002108432B
:10D48000E9D1154E39460298FEF72CF80146029A6A
:10D490007943511A0291315C019800F01FF801980C
:10D4A000C068002805DB38460399FEF71BF8070023
:10D4B000E8D10B98C0070DD0002C0BD02046641E7D
:10D4C000A84207D92021019800F008F80198C06807
:10D4D0000028F1DA05B0F0BD00EE010010B50446F9
:10D4E00080686368421C934205DB23681954A2607C
:10D4F000E068401CE060A2686068824209D121684F
:10D500002069FFF79DFDA168884203D00020C04339
:10D51000E06010BD0020A06010BDF8B5040C8BB217
:10D52000264682B25E43104658430D0C370C360433
:10D5300000218019164679416E43370C3604801954
:10D54000264679416E438919F8BD00004900CA0298
:10D550000243100000D004204A0D01D001221043E4
:10D56000044A490D914201D102210843012800D10A
:10D5700005207047FF070000F8B504464F1EC8009D
:10D580000838211815461E46086849683A46062399
:10D590009A4310D02A463346FEF7BEF83A46D200E8
:10D5A000083AA3181A687F1E5B68FEF73FFE062242
:10D5B0003B469343EED1022F23D0042F11D0062FE8
:10D5C0002FD12A463346FEF7A7F8E36AA26AFEF790
:10D5D0002DFE2A463346FEF79FF8636A226AFEF75D
:10D5E00025FE2A463346FEF797F8E369A269FEF75F
:10D5F0001DFE2A463346FEF78FF863692269FEF75F
:10D6000015FE2A463346FEF787F8E368A268FEF760
:10D610000DFE2A463346FEF77FF863682268FEF760
:10D6200005FEF8BD002210B5134610460149FEF76D
:10D630002DFE10BD0000F03F10B5FEF7F7FD10BD48
:10D64000002210B5134610461146FEF71FFE10BD0E
:10D6500010B50721024A00200907FFF73BF810BD6B
:10D6600001030000034A10B500201107FFF732F84C
:10D6700010BD000001FDFFFF30380A2801D2012053
:10D68000704700207047FEE7BFF34F8F04490348FF
:10D69000C860BFF34F8F00BFFDE700000400FA052C
:10D6A00000ED00E00EB50021029000916A46019164
:10D6B0000148FFF7E9FF0EBD01400000FEB5354C03
:10D6C0000020A0701723344A4B21344800F022FA7E
:10D6D0000A2000F089F9A0780100FDD0012857D177
:10D6E0002D48417A052953D18178032950D10179F8
:10D6F000FB294DD1C07A284D8007800FE071A87BAF
:10D70000697B00020843FEF7A7F92E460190307CA2
:10D71000F17B00020843FEF79FF90090A87C697C2A
:10D7200000020843FEF798F90746307DF17C0002BD
:10D730000843FEF791F9FEF73DF900B20E2100F023
:10D7400039FF60610198FEF735F900B20E2100F053
:10D7500031FFA0600098FEF72DF900B20E2100F015
:10D7600029FFE0603846FEF725F900B20E2100F0EF
:10D7700021FF2061A87D697D00020843FEF76CF956
:10D780000B21C943FEF76CF9054901F0BFFAA0610E
:10D79000FEBD00007018002068190020CCED0100CB
:10D7A000000070421CB5002001900090022301AAE5
:10D7B0004B21104800F0C0F90A2000F015F90E487E
:10D7C00040780028FDD00DA10020FFF781FC6420E7
:10D7D00000F00AF900220A21052000F053FF00287A
:10D7E00003D00BA10020FFF773FC642000F0FCF8CD
:10D7F0001CBD0000CCED010070180020494D5520E3
:10D80000417661696C61626C65210D0A000000005F
:10D810005175617473207365740000007FB50C4608
:10D820000D462035064669782878019100902246F9
:10D830002632D11E3046E36901F055F8002819D18F
:10D84000E87800281DD1207B022801D0032818D1B8
:10D850002269E169914214D16269E261E37B2B7034
:10D86000217E8906C90F6970032804D031462046FD
:10D8700000F0DCFF7FBD00913146204601F0B6F894
:10D880007FBD20460C3007C801AB07C3E8780021F4
:10D8900000280ED00920C0013218506C5064820755
:10D8A00001D5012002E0400705D502206A4610702C
:10D8B00001E0684601702971207E4007E0D42268AB
:10D8C0006846616890477FBD1048018CC9B2012944
:10D8D00017D1818C090714D1018D09060A0F03D1D4
:10D8E000828D1206120F0ED0090F012903D1828DED
:10D8F0001206120F07D0032903D1808D0006000FF6
:10D9000001D000207047012070470000C00F00F0D8
:10D91000A6B01EA10020FFF7DBFB00F06DFF21A1E8
:10D920000020FFF7D5FBFFF73DFF22A10020FFF706
:10D93000CFFB244CFFF7C2FE2069FEF711F80191DE
:10D940000090E068FEF70CF807460291A068FEF729
:10D9500007F805460E466069FEF702F80246009891
:10D960000B4601990591049002996846E0C0039125
:10D9700015A106A8FDF76EFC06AA1AA10020FFF764
:10D98000A7FB0A2000F030F8D4E700000A0D545736
:10D99000492073656E736F72206578616D706C6578
:10D9A0000D0A00000A0D54574920696E74697465A8
:10D9B000640D0A000A0D494D5520696E697465644D
:10D9C0000D0A00007018002025332E32662C202509
:10D9D000332E32662C2025332E32662C2025332E12
:10D9E0003266000025730A0031B5054C04E0401E84
:10D9F00000902046FDF7C6FB00980028F7D138BDFF
:10DA0000E70300008207D30EFF229A408907090E20
:10DA100010B5994000280BDA03071B0F083B9C0840
:10DA20000C4BA400E318DC6994430C43DC6107E071
:10DA30008408094BA400E418236893430B43236034
:10DA4000C106C90E012088400449086004490860E5
:10DA500010BD000000ED00E000E400E080E200E026
:10DA600000E100E0017928225143054A0068891845
:10DA700005221302C018026002202031887070470E
:10DA8000001A0020F8B507460C46007928211D4DE4
:10DA900041434D192E462036B178002901D0082087
:10DAA000F8BD002C02D11849000144180CC5002013
:10DAB00028607071307121463846083D00F02CFE18
:10DAC00020681249820012481218116062689200A0
:10DAD00010180160052338681B0206CCC01881604D
:10DAE000C260216841622868083C002805D0386877
:10DAF000217B000B40B2FFF785FF0120B0700020B2
:10DB0000F8BD0000001A0020E4ED01000C06000042
:10DB1000000700503EB5074D2C69AD690094029591
:10DB20006C466170A37001920022694600F016F8FD
:10DB30003EBD0000E4ED01003EB50025069C0095C9
:10DB400002956D466970AB700192002C01D02022C5
:10DB500000E00022294600F001F83EBD70B50D46F8
:10DB6000017928235943064BCC18910701D0062090
:10DB700070BD134601682A46204600F07DFF70BD47
:10DB8000001A002001218140014881607047000097
:10DB9000000500504058002800D001207047405830
:10DBA000002800D00120704703221202801840682C
:10DBB000084000D001207047F0B51FB496B08446ED
:10DBC0000C460246199D18980390490068006300AE
:10DBD000490840080193002A01D0012600E00026F0
:10DBE0009E19FE4BF6185B109E422BD36E00039FCE
:10DBF0000296002F00D00127F719F84EF84BBE19F6
:10DC00009E421FD3039E0346F64F334309D03B4643
:10DC10009C4201D1002A04D0019B002A05D0012694
:10DC200004E0002039461BB0F0BD00269E19EE4BE3
:10DC30009E4207D8039F029E002F00D00127F619AD
:10DC40009E4207D92B4660462146189AFFF7F4FCFE
:10DC50001BB0F0BD0023002C29DAE44EB04226DAD6
:10DC6000E34EB04201DB022321E0DE4EB0421EDB78
:10DC7000E04E070DBE19142E09DD3427BF1B039E8D
:10DC8000FE400196BE40039FBE420BD00FE0039FB3
:10DC9000002F0CD11427BF1B0646FE400196BE4044
:10DCA000864204D1019BDE07F60F02239B1B0E4622
:10DCB000164318D1002D16DA002C03D0022B01D008
:10DCC000012B06D00220FDF7F3FEFFF7ABFC1BB0E3
:10DCD000F0BD0220FDF7ECFEFFF7A4FC0122D20705
:10DCE00051401BB0F0BD039E002E61D1BF4EB0422B
:10DCF00020D1C148844201D1002A08D0B9488142CC
:10DD000009DB002D10DB189829461BB0F0BD002060
:10DD1000B4491BB0F0BD002D06DA01222946D20716
:10DD2000189851401BB0F0BDB4497944086849685F
:10DD30001BB0F0BDAB4FB84225D1002D1FDA002932
:10DD400004D0B14212D1002A09D018E0002A72D1C1
:10DD5000A649E20F0020D20711431BB0F0BD0020FE
:10DD6000E20F0146D20711431BB0F0BDB14206DA03
:10DD7000234600203946FEF789FA1BB0F0BD104655
:10DD800021461BB0F0BDB14212DA0126B607B542FA
:10DD900003D1234610461946FEE3994EB54207D1FA
:10DDA000261E05DB1046314600F092FC1BB0F0BD8C
:10DDB00067007F081646002A40D100290AD08B4A06
:10DDC000914229D1002C0EDD002D1CDB00201146D4
:10DDD0001BB0F0BD022B16D0002C14D0012B12D199
:10DDE000002C14DB0FE0002C28DA002D09DB012BBE
:10DDF00003D000207D491BB0F0BD002081491BB03D
:10DE0000F0BD012B03D0002001461BB0F0BD002067
:10DE10000121C9071BB0F0BD724A91420ED1002CFE
:10DE200001DA002B17D0022B06D00020C043FDF7EB
:10DE300068FC1BB0F0BD90E20120F8E7E217521C2D
:10DE400094461A4307D000220892664C62465B1E35
:10DE50001A4307D009E00120FDF72AFEFFF7F0FB87
:10DE60001BB0F0BD0022644C0892674A90427DDDF1
:10DE7000664B674A98421FDD914202DC002D05DBAC
:10DE80004DE05848814217DB002D48DD0220FDF7A8
:10DE90000FFEFFF7DDFB05460E460022534B2146E1
:10DEA0000898FDF739FC084671004908C00FC00703
:10DEB000014328461BB0F0BD914215DA002D2EDA41
:10DEC0000220FDF7F5FDFFF7C3FB05460E460022D5
:10DED000464B21460898FDF71FFC72005208C80FF8
:10DEE000C0070243114617E03E4B994223DD002D47
:10DEF00015DD0220FDF7DCFDFFF7AAFB05460E4607
:10DF000000223A4B21460898FDF706FC08467100AE
:10DF10004908C00FC007014328461BB0F0BD0220CE
:10DF2000FDF7C6FDFFF79EFB49004908E20FD20747
:10DF300011431BB0F0BD002230463946FEF783F98D
:10DF4000012205460E46D243FEF7C4FB314A324B4E
:10DF5000FEF784F92A463346FDF7DEFB0022284B04
:10DF6000FEF77CF907462A46334600E064E0039159
:10DF700010461946FDF7D0FB3A46039BFDF7CCFB54
:10DF80000746032209915207244B28463146FDF7E4
:10DF9000C3FB07910C90224A204B38460999FDF7A4
:10DFA000BBFB074601911F4A1F4B28463146FDF730
:10DFB000B3FB3A46019BFEF746F907460B4602467D
:10DFC000099107990C98FEF731F900250E4628466D
:10DFD000079B0C9AFEF737F93A4627E0FFFF1F0030
:10DFE000FFFF0F000000F03F0000E0FF0000F07FA7
:10DFF0000000404301FCFFFF0000F0BFEA110000F9
:10E000000000E03F0000F0FF0000E0410000F043AE
:10E01000FFFFEF3F555555555555D53F4715F73F30
:10E02000FE822B6544DF5DF80BAE543E099BFEF784
:10E0300015F902460B4652E1012500202D05A942A3
:10E0400007DA352230463946FEF744FB06463420CF
:10E05000C0430A151218FE48101803900803FD4922
:10E06000000B01430F46FC49884201DC002003E01D
:10E07000FA49884202DA0120119005E0002011904F
:10E080000398401C7F1B039011980597C200F44829
:10E090000F927844801843680268394630460D93E1
:10E0A0000292FEF7D0F807910C9030460D9B029A31
:10E0B0000599FEF7BBF802460B460020E549FEF73E
:10E0C000E5F809910490079B0C9AFDF725FB129047
:10E0D00000201090E3480D46784400680E9001211E
:10E0E00078104907084311990D9B890440180121B4
:10E0F000C90447183946029A0E98FEF7A4F832462A
:10E10000059BFEF7ABF802460B4629461098FDF733
:10E1100003FB064602913B4629460E9A1098FDF7EE
:10E12000FBFA079B0C9AFEF799F83246029BFEF722
:10E130008AF8099B049AFDF7EFFA0591129A0A9062
:10E140002B4610461946FDF7E7FA06460246C64832
:10E150000F460B4606217844FFF70EFA32463B463F
:10E160000091049010461946FDF7D6FA009B049AD8
:10E17000FDF7D2FA06460F462B461946129A10981A
:10E18000FEF754F8059B0A9AFDF7C6FA32463B465D
:10E19000FEF74CF8109A079104902B46104619464A
:10E1A000FDF7BAFAB14E0022334609910290FEF70C
:10E1B0003DF8079B049AFEF739F80020074602460F
:10E1C00033460091FEF73FF8099B029AFEF73BF8B1
:10E1D000079B049AFEF742F806460D913A462946F7
:10E1E000009B1098FDF798FA07910C902B4630464B
:10E1F000129A0D99FDF790FA05460E463A46009B95
:10E2000005990A98FDF788FA33462A46FEF70EF874
:10E2100002460B460746099107990C98FEF706F847
:10E2200000250E462846079B0C9AFEF70CF83A4646
:10E23000099BFEF713F807460722099152078C4BFA
:10E2400031462846FDF768FA07910090894A884BC5
:10E2500038460999FDF760FA07460191864A874BCF
:10E2600031462846FDF758FA3A46019BFDF7DEFF96
:10E27000834B7B440F9A9B181A685B68FDF7D6FFA7
:10E28000029009910398FDF73CFA05910490099BCF
:10E29000029A07990098FDF7C9FF7A4B7B440F9AC1
:10E2A0009B181A685B6817460393FDF7BFFF059B31
:10E2B000049AFDF7BBFF0E462846059B049AFDF71E
:10E2C000C2FF3A46039BFDF7BEFF079B009AFDF78E
:10E2D000BAFF099B029AFDF7C1FF02460B46199946
:10E2E00000200C900F461898FDF716FA0291049042
:10E2F0003B460C9A19991898FDF7A5FF2A46334614
:10E30000FDF70AFA029B049AFDF790FF09910E901F
:10E310002A46334639460C98FDF7FEF906460F4665
:10E32000099B0E9AFDF782FF574A0D46914220DB6A
:10E330005242AA18024310D132463B46FDF783FFF2
:10E3400004900391514A524B09990E98FDF76EFFC4
:10E35000039B049A00F0A6FC1ED20220FDF7A8FB46
:10E36000FFF776F949004908E20FD20711431BB0C5
:10E37000F0BD6A00474B52089A420DD3464AAA188C
:10E38000024300D0CBE532463B46FDF75CFF099BDC
:10E390000E9A00F087FCF5D96800002340082C494C
:10E3A0000393020D3D4B5218984223DD01200005D6
:10E3B000521CD04042195000400D40183849794451
:10E3C000096813468C463749C1408B43120301212B
:10E3D000120B090551181422101AC1400391002D87
:10E3E00001DA48420390624630463946FDF72BFF7A
:10E3F00006460F4632463B4609990E98FDF716FF32
:10E4000000252A46284B28460591FDF785F90791F6
:10E410000C90264A264B28460599FDF77DF9009178
:10E42000029032463B4628460599FDF70CFF099BB2
:10E430000E9AFDF713FF1F4A1F4BFDF76DF9009B66
:10E44000029AFDF7F3FE07460B460246099135E0B6
:10E4500001FCFFFF0000F03F8E9803007AB60B002E
:10E460007A0D00003C0E0000E60C000000000840A1
:10E4700009C7EE3FFD033ADCF5015B14E02F3EBE19
:10E48000BA0B0000800B000000009040FE822B655C
:10E490004715973C00CC904000346F3F0000E03FB0
:10E4A000560B0000FFFF0F00432EE63F396CA80C0F
:10E4B000615C20BEEF39FAFE422EE63F07990C98C8
:10E4C000FDF7B4FE05460E46079B0C9AFDF7BBFE12
:10E4D0003A46099BFDF7C2FE09912A4633460E9043
:10E4E00010461946FDF718F9074602462F480B4615
:10E4F000059105217844FFF73FF83A46059BFDF763
:10E500000BF92A463346FDF7A9FE07460191284636
:10E510003146099B0E9AFDF7FFF8099B0E9AFDF70D
:10E5200085FE012304910C9000229B073846019937
:10E53000FDF789FE05910E903A4628463146019B2B
:10E54000FDF7EAF8059B0E9AFDF7A0FE049B0C9AD6
:10E55000FDF779FE2A463346FDF775FE0022144B7F
:10E56000FDF77CFE064603980D4600054119091586
:10E57000002912DC30462946039AFEF7ABF8FEF775
:10E58000E5FF042801D1FFF76DF830462946039ACC
:10E59000FEF7A0F8064601E004E029180B463246D3
:10E5A00021460898FDF7B8F81BB0F0BD78090000C7
:10E5B0000000F03F70B50C46FDF746FA0646604293
:10E5C000FDF79FF80B460246012100208907FFF75F
:10E5D000F3FA05460C463046FDF7C2F92A462346B3
:10E5E000FDF79AF8FDF72EF870BD000030B50A4827
:10E5F000FF21C57D0022094C0931094B002D6250D5
:10E6000007D09969437EC268D154417E491C417646
:10E6100030BD986930BD0000281A0020002000405D
:10E62000002500401FB501236A461370107203488D
:10E63000019106C8684690471FBD0000281A0020B7
:10E6400038B50D4A091D1170002353700B4C9070A2
:10E65000215CD170491C2154009380234B21084830
:10E66000FFF76AFA04460A20FFF7BEF9002C01D032
:10E67000002038BD012038BD7F1900208C180020F3
:10E68000CCED01007D23DB0010B559430F4BFD2479
:10E690001C71587100209871D871187259720C123F
:10E6A0009C720C14DC72090E197358739873D8732A
:10E6B00018745A74100A9874100CD874100E1875C7
:10E6C00011210220FFF7BCFF10BD00007F190020C0
:10E6D000F8B506460C46FEF7B7FB051E0F4600D000
:10E6E0000120014349000B484908411AC90F0DD0C8
:10E6F000002E01D0012100E000210C4361004908F7
:10E70000401AC00F02D10120FDF7D2F92846394640
:10E71000F8BD00000000F07FF8B50C460968224DF6
:10E720008900204849190860616889004919086012
:10E730002068FFF727FA6068FFF724FA1948216874
:10E74000401C8900491908606168890049190860FE
:10E750000420FCF727FD0025144F01262079396994
:10E76000C140C807C00F02D0002D19D00FE020789B
:10E7700031468140F9600420FCF714FD2068FFF762
:10E7800001FA0420FCF70EFD6D1C092DE6DB207953
:10E790008640FE600420FCF705FD6068FFF7F2F993
:10E7A000F8BD00000C0600000007005000050050F6
:10E7B00010B50E4900228A700278002A04D102792D
:10E7C0000120002A01D0887010BD4A78002A0AD0A2
:10E7D0001723074A4B210748FFF79CF90028F3D07D
:10E7E000FEF760FF10BD487010BD000070180020DB
:10E7F00068190020CCED01001FB50A4B6C460FCB09
:10E800000FC408480023084A69460838FFF73AF958
:10E81000002801D0FEF746FF02480838FFF722F92A
:10E820001FBD0000D4ED0100B1E70100FFB50027D6
:10E83000FF2285B00C4605321E46A750FF22253226
:10E84000A750FF221D32A750FF220932A7500546CC
:10E850002035CA1DFF32AF71FA32EF70012B0FD095
:10E86000012313600122226222600268002A09D07B
:10E87000104981608068032109026118486015E031
:10E880000223EEE701462631233003910290002057
:10E89000019000962046079B039A029900F023F806
:10E8A0000028F4D1E878002800D00327384609B0C2
:10E8B000F0BD00008602000030B51C78039D944234
:10E8C00008D205221202095D8018C1611878401C27
:10E8D000187006E00121002D02D0C161002030BD7A
:10E8E0004161012030BDFFB50F46097881B0044673
:10E8F000012904D0039802780A98824201D10126A6
:10E9000000E00026FF2025300025002907D02550F3
:10E91000FF201D302550FF200930255056E0FF21F3
:10E9200025312046FFF736F900282CD1FF211D3173
:10E930002046FFF72FF9002814D0FF201D30255066
:10E94000FF2125312046FFF725F900281BD10B9820
:10E9500000902046039B0A9A0499FFF7ADFF002818
:10E9600040D033E0FF2109312046FFF713F900289A
:10E970002CD0FF2009302550FF2125312046FFF7FC
:10E9800009F9002806D0FF202530255001206061BC
:10E9900038701BE003990A980F78049ABC468742A6
:10E9A00014D205231B02E3189B696746D3550A78E6
:10E9B000521CD2B20A70411E8A4203D102200102C7
:10E9C000085101E0824201D001212162002E0BD0CA
:10E9D000FF26053631462046FFF7DCF8002803D035
:10E9E000A551002005B0F0BD0120FBE7FFB50546AD
:10E9F00087B00C460020FF21109F05310590605024
:10EA0000FF2125316050FF211D316050FF21093168
:10EA10006050012149022E4608512036B071F07035
:10EA200001202062A060B31D0097029320460A9A3D
:10EA30000999FFF741FF2868002807D00D48A86012
:10EA4000A868032109026118486010E023350A987C
:10EA50000090019729462046099B029AFFF743FF41
:10EA60000028F4D1F078002801D003200590059803
:10EA70000BB0F0BD86020000F8B504460025032067
:10EA8000ED43000208188560254620352E79002EBA
:10EA900003D0A16841601120F8BD5807C017401C81
:10EAA0002871180701D50620F8BDA361C1CA0C342E
:10EAB000C1C40C3A9078287050680B266060F6014B
:10EAC00050788E19B06010780026183C01280ED0BE
:10EAD000002801D1980601D5012000E000206870CF
:10EAE0000090937852682046FFF780FF05E06E7033
:10EAF000937852682046FFF799FE21680029D3D108
:10EB00002E71F8BDFF2107481D31002242500648F2
:10EB1000828A8168895C828A521C82820348C16130
:10EB20007047000000200040281A00200025004007
:10EB30001FB500216A461170107204488268019264
:10EB4000817506C8684690471FBD0000281A00203E
:10EB5000F0B5454D012185B049022846FFF724F85C
:10EB600001270026414C002824D0FF2125312846CA
:10EB7000FFF715F800281DD0FF2025302E508120EA
:10EB80003B4980008860A07E002800D16F60022190
:10EB9000684601703749086808600390E17D68465F
:10EBA0000172E0680190E675267606CC6846083C5E
:10EBB00090472BE004212846FEF7F6FF002825D0D9
:10EBC000FF2109312846FEF7EAFF00281ED0FFF793
:10EBD0000DFDE07D617E884218D1207E002808D09E
:10EBE000627EE168E0752069E06026766676104610
:10EBF0000AE0A07E002800D16F6081201C498000BF
:10EC00008860E675607EE168FFF70CFDFF211D312D
:10EC10002846FEF7C4FF00280DD0A18AA07D8142BE
:10EC200002D2FFF76FFF06E0FF211D316E50002872
:10EC300001D0FFF77DFFFF2145312846FEF7AFFFEA
:10EC400000280ED0FF2045302E50A07E002800D096
:10EC50002F60E07D002804D0E675607EE168FFF754
:10EC6000E1FC05B0F0BD000000200040281A0020A3
:10EC7000002300408024004010B500290AD0087805
:10EC8000002807D005487844FCF7E8FB002801D0AD
:10EC9000002010BD0248784410BD00005A03000057
:10ECA0005203000070B501251C002D050C4310D443
:10ECB000EC4206D4AC420AD48B4200D070BD8242F2
:10ECC00070BDEB4217D4E94215D48B4270BD9B4214
:10ECD00070BDEC4206D5AC42F9D5994200D070BD6A
:10ECE000904270BD6D005C00EC4204D24C00EC42DE
:10ECF00001D2994270BD0FB4034C0CBC03BC30B4BC
:10ED0000FEF75AF830BC70BD1900160470B5420009
:10ED100064414B005C41120E39D01B0E38D0FF2AE3
:10ED20003CD0FF2B3AD040024902400A490A060073
:10ED300045184E43000A090AD2184843ED017F3AAC
:10ED40000104731A4019190C4318990F04D00121BA
:10ED50005B0849075B1A521CD80904D3401CF50311
:10ED600001D19D0607D0FF2A08D2D50506D0E407B9
:10ED70002043401970BD0125A843F4E7002A01DCB7
:10ED8000E00770BD2402FF202043C00570BD1B0EAC
:10ED9000FF2A03D0FF2B01D0E00770BDFF264500FE
:10EDA0003606B54206D84D00B54203D8D218FF2A20
:10EDB00000D0E7E7004870BD0000C07F03B4024800
:10EDC0007844844603BC604793CEFFFF0030004088
:10EDD00000000000040000000300000000006806BE
:10EDE00001000000070000001E0000000000980164
:10EDF000030000000100000000000000000000000F
:10EE00003031323334353637383941424344454660
:10EE1000000000000000F03F000000000000F83F8C
:10EE200000000000000000000000004003B8E23FC6
:10EE3000000000000000000006D0CF43EBFD4C3E78
:10EE4000033333333333E33FFFAB6FDBB66DDB3F6D
:10EE50004D268F515555D53F01411DA96074D13FB5
:10EE600065DBC9934A86CD3FEF4E454A287ECA3FAF
:10EE70003E5555555555C53F93BDBE166CC166BF31
:10EE80002CDE25AF6A56113FF16BD2C541BDBBBE2A
:10EE9000D0A4BE726937663E80807F7E7D7C7B7A9F
:10EEA0007978777676757473727171706F6E6E6D36
:10EEB0006C6C6B6A6A6968686766666564646363DC
:10EEC00062616160605F5F5E5E5D5D5C5C5B5B5A62
:10EED0005A595958585757565655555554545353CF
:10EEE00052525251515050504F4F4F4E4E4D4D4D2A
:10EEF0004C4C4C4B4B4B4A4A4A4949494848484775
:10EF000047474746464645454544444444434343B2
:10EF100043424242424141410000000000000000E3
:10EF200002400000000000A00000000005400000BA
:10EF3000000000C8000000000C4000000000409CE1
:10EF400000000000194000000020BCBE00000000CE
:10EF500034400000BFC91B8E00000004B540000013
:10EF6000504BCFD06607E2CF010000006C4100009B
:10EF70003E8251AADFEEA73401000000D942000012
:10EF8000DCB5A0E23A301F97FFFFFFFFB445000059
:10EF9000FD25A0C8E9A3C14FFFFFFFFFFF3F000011
:10EFA0000000008000000000FF3F00000000008023
:10EFB000000000005465726D696E616C0000000015
:10EFC000FCEF010070180020A800000004B101004F
:10EFD000A4F0010018190020A015000020B10100C4
:10EFE0001C00000043000000F8FFFFFF0C000000C1
:10EFF0000E0000000F0000002E00000000000000C6
:10F000000000000000000000000000000000000000
:10F0100000000000000000000000000000000000F0
:10F0200000000000000000005345474745522052B1
:10F030005454000000000000020000000200000024
:10F04000B4EF0100441A002000040000000000009A
:10F0500000000000000000000000000000000000B0
:10F0600000000000000000000000000000000000A0
:10F07000B4EF0100441E002010000000000000005A
:10F080000000000000000000000000000000000080
:10F090000000000000000000000000000000000070
:04F0A0000024F40054
:040000050001B0C185
:00000001FF
