:020000040001F9
:10B00000502E0020DDB10100F7B10100F9B10100BF
:10B010000000000000000000000000000000000030
:10B02000000000000000000000000000FBB1010073
:10B030000000000000000000FDB10100FFB10100B0
:10B0400001B2010001B201005DB70100A9B6010023
:10B0500001B201000000000001B2010001B20100D4
:10B0600001B2010001B2010001B2010001B2010010
:10B0700001B2010001B2010001B2010001B2010000
:10B0800001B2010001B2010001B2010001B20100F0
:10B0900001B2010001B2010001B2010001B20100E0
:10B0A00001B2010001B20100000000000000000038
:10B0B0000000000000000000000000000000000090
:10B0C00000F002F800F03EF80CA030C80838241850
:10B0D0002D18A246671EAB4654465D46AC4201D1D0
:10B0E00000F030F87E460F3E0FCCB64601263342C4
:10B0F00000D0FB1AA246AB4633431847BC130000EE
:10B10000DC130000103A02D378C878C1FAD852078D
:10B1100001D330C830C101D504680C60704700000D
:10B120000023002400250026103A01D378C1FBD863
:10B13000520700D330C100D50B6070471FB51FBD4B
:10B1400010B510BD00F06CF91146FFF7F7FF00F0E5
:10B15000CBFC00F084F903B4FFF7F2FF03BC00F06E
:10B16000F4FB0000401E00BF00BF00BF00BF00BFD7
:10B1700000BF00BF00BF00BF00BF00BF00BFF1D1D4
:10B1800070470000401E00BF00BF00BF00BF00BFEF
:10B1900000BF00BF00BF00BF00BF00BF00BFF1D1B4
:10B1A0007047000070B505460C46164602E00FCC0D
:10B1B0000FC5103E102EFAD2082E02D303CC03C5C1
:10B1C000083E042E07D301CC01C5361F03E02178C9
:10B1D0002970641C6D1C761EF9D270BD03210C48C9
:10B1E00002680A4302600B4802680A4302600A4888
:10B1F00080470A480047FEE7FEE7FEE7FEE7FEE776
:10B20000FEE7000006480749074A084B7047000060
:10B210002405004054050040BDB60100C1B0010046
:10B22000501E0020502E00205026002050260020C6
:10B230007047F8B5042A2CD3830712D00B78491C29
:10B240000370401C521E83070BD00B78491C0370FF
:10B25000401C521E830704D00B78491C0370401C0D
:10B26000521E8B079B0F05D0C91ADF002023DE1B5F
:10B2700008C90AE0FFF796FFF8BD1D4608C9FD4062
:10B280001C46B4402C4310C0121F042AF5D2F30808
:10B29000C91A521EF0D40B78491C0370401C521E70
:10B2A000EAD40B78491C0370401C012AE4D40978C5
:10B2B0000170F8BD002203098B422CD3030A8B4294
:10B2C00011D300239C464EE003460B433CD400229E
:10B2D00043088B4231D303098B421CD3030A8B42B0
:10B2E00001D394463FE0C3098B4201D3CB01C01A7E
:10B2F000524183098B4201D38B01C01A5241430949
:10B300008B4201D34B01C01A524103098B4201D336
:10B310000B01C01A5241C3088B4201D3CB00C01AA3
:10B32000524183088B4201D38B00C01A524143081B
:10B330008B4201D34B00C01A5241411A00D2014640
:10B340005241104670475DE0CA0F00D049420310D9
:10B3500000D34042534000229C4603098B422DD328
:10B36000030A8B4212D3FC22890112BA030A8B42D0
:10B370000CD3890192118B4208D3890192118B421F
:10B3800004D389013AD0921100E08909C3098B42A4
:10B3900001D3CB01C01A524183098B4201D38B01E7
:10B3A000C01A524143098B4201D34B01C01A52418A
:10B3B00003098B4201D30B01C01A5241C3088B42CF
:10B3C00001D3CB00C01A524183088B4201D38B00BA
:10B3D000C01A5241D9D243088B4201D34B00C01A44
:10B3E0005241411A00D20146634652415B10104659
:10B3F00001D34042002B00D54942704763465B10A1
:10B4000000D3404201B50020C046C04602BD70478F
:10B41000704770477047000000487047F01D0020DB
:10B420007546FFF7F9FFAE46050069465346C0086A
:10B43000C000854618B020B5FFF7E4FE60BC0027C9
:10B440004908B6460026C0C5C0C5C0C5C0C5C0C5F0
:10B45000C0C5C0C5C0C5403D49008D46704710B548
:10B460000446C046C0462046FFF775FE10BD0000EA
:10B47000F7B518214843214916464418E16A880760
:10B48000800F02280BD0A06A626A801A401E01D584
:10B49000226A1018864202DD89072DD00646002E4A
:10B4A0002AD00027A06A616A451A6D1E01D5206A5C
:10B4B0004519616A206A411AA94201DC616A451A8C
:10B4C000B54200DB3546616AE0692A4640180199B9
:10B4D000FFF7AFFE01987F1940190190606A761B53
:10B4E00040196062606A216A884201D1002060626E
:10B4F000002ED7D13846FEBD0020FEBD88180020A2
:10B500000FB408B504A900916A46039900F004F845
:10B5100001B008BC04B01847F7B598B007A802906E
:10B52000402000250495039018980C460595069038
:10B530002178641C002974D0252907D002A800F0C6
:10B54000E5F905980028F3DA1BB0F0BD00210123CE
:10B550000227042208262078232817D02B2813D06E
:10B560002D280DD030280DD0002220780346303B06
:10B570000A2B0ED20A235A431218303A641CF4E7FD
:10B58000194304E0394302E0114300E03143641CF5
:10B59000E1E70023C7B22E2F0AD1641C20780746AA
:10B5A000303F0A2F04D20A277B431B18303BF4E7B5
:10B5B0006C280DD068280BD0702852D00BDC2528C1
:10B5C0005AD058282ED063280CD0642858D110E0C7
:10B5D0002078641CECE7732832D0752817D07828BF
:10B5E0004ED11FE01A981A9A0068011D1160017867
:10B5F00043E01A981A9F0068061D3E60006801919A
:10B60000009201460A2202A800F0ACF838E01A982D
:10B610001A9F0068061D3E600068009201910A2290
:10B6200009E02FE01A981A9F0068061D3E60006826
:10B63000009201911022014602A800F0F5F81FE0E7
:10B640001A981A9A0068011D116006683178761CF4
:10B65000002915D002A800F059F905980028F5DA5C
:10B660000EE01A981A9A00680823011D11600168FB
:10B67000102200960195DFE7252102A800F046F987
:10B68000641C5EE70598002800DC5DE7049800284C
:10B6900004D0024607A91898FFF7EAFE0499059816
:10B6A0004018059050E7000010B50249024800F02C
:10B6B000A1F910BD9C1900200030004010B500F029
:10B6C000EFF9002805D01F491D484860C8131E49DE
:10B6D00088611E48018CC9B201290BD1828C1207E6
:10B6E00008D1028D1206120F042A03D1828D120690
:10B6F000120F0AD0012921D1818C09071ED1018D99
:10B700000906090F0A2904D007E0114A01219160B6
:10B71000F5E7828D1206120F05D00D290ED1808D0E
:10B720000006000F0AD10B480168012904D00A491C
:10B73000016001680129FCD1C021416110BD0000F8
:10B74000DFFF07C000050040006C0040C00F00F0A4
:10B750000006004000EC06407593000010B500F0B4
:10B76000EFFD10BDFFB583B00E4670420D9F0C9CDF
:10B770000090002900DB0846012502E0FFF79AFD52
:10B780006D1C05998842F9D20698A84200D9054651
:10B79000002C04D0002E01DB780700D5641EB8070A
:10B7A00002D50698002811D0F8070FD1002C0DD033
:10B7B0002046641EA84209D92021039800F0A6F86B
:10B7C0000398C0680028F1DA07B0F0BD002E02DA55
:10B7D0002D21009E02E0780707D52B21039800F069
:10B7E00095F80398C0680028EEDBB807800F0228A0
:10B7F00011D1069800280ED1002C0CD02046641ED2
:10B80000A84208D93021039800F080F80398C06856
:10B810000028F1DAD8E7019700943146069B059A93
:10B82000039800F001F8CFE7FFB581B001271E466D
:10B830003D460A9C029802E0FFF73CFD6D1C03990F
:10B840008842F9D2AE4200D935460B98C0071CD1C8
:10B85000002C1AD00B98800701D5002E02D0202092
:10B8600000900BE03020FBE70099019800F04EF8C3
:10B870000198C068002845DB002C06D02046641ED5
:10B88000A842F1D801E00398474339460298FFF7F0
:10B8900011FD01460398814201D3012000E0002000
:10B8A0003146761E012901DD012100E00021084317
:10B8B000E9D1154E39460298FFF7FCFC0146029A81
:10B8C0007943511A0291315C019800F01FF80198F8
:10B8D000C068002805DB38460399FFF7EBFC07003A
:10B8E000E8D10B98C0070DD0002C0BD02046641E69
:10B8F000A84207D92021019800F008F80198C068F3
:10B900000028F1DA05B0F0BD9CC4010010B5044672
:10B9100080686368421C934205DB23681954A26067
:10B92000E068401CE060A2686068824209D121683A
:10B930002069FFF79DFDA168884203D00020C04325
:10B94000E06010BD0020A06010BDFEE7BFF34F8F88
:10B9500004490348C860BFF34F8F00BFFDE70000F4
:10B960000400FA0500ED00E00EB500210290009100
:10B970006A4601910148FFF7E9FF0EBD0140000052
:10B980001CB5002001900090022301AA4B2112480F
:10B9900000F080F9002801D0FFF7E6FF0A2000F050
:10B9A000D1F80E4C60780028FDD00DA10020FFF7E3
:10B9B000A7FD00F0D1F902E0012000F0C3F8E07823
:10B9C0000028F9D100F0A6F902E0012000F0BAF851
:10B9D00020790028F9D11CBD68C40100701800202E
:10B9E000494D5520417661696C61626C65210D0A93
:10B9F000000000007FB50C460D46203506466978EC
:10BA000028780191009022462632D11E3046E36903
:10BA100000F061FB002819D1E87800281DD1207BB7
:10BA2000022801D0032818D12269E169914214D17A
:10BA30006269E261E37B2B70217E8906C90F697020
:10BA4000032804D03146204600F0E8FA7FBD00917B
:10BA50003146204600F0C2FB7FBD20460C3007C8AF
:10BA600001AB07C3E878002100280ED00920C001EF
:10BA70003218506C5064820701D5012002E0400763
:10BA800005D502206A46107001E0684601702971F0
:10BA9000207E4007E0D422686846616890477FBDF9
:10BAA0001048018CC9B2012917D1818C090714D122
:10BAB000018D09060A0F03D1828D1206120F0ED0D6
:10BAC000090F012903D1828D1206120F07D0032915
:10BAD00003D1808D0006000F01D0002070470120A7
:10BAE00070470000C00F00F008A10020FFF708FD1C
:10BAF00000F07AFA0BA10020FFF702FDFFF740FFEC
:10BB00000CA10020FFF7FCFCFEE700000A0D5457D3
:10BB1000492073656E736F72206578616D706C6516
:10BB20000D0A00000A0D54574920696E7469746546
:10BB3000640D0A000A0D494D5520696E69746564EB
:10BB40000D0A000031B5054C04E0401E009020466F
:10BB5000FFF708FB00980028F7D138BDE703000085
:10BB60008207D30EFF229A408907090E10B599402B
:10BB700000280BDA03071B0F083B9C080C4BA400A2
:10BB8000E318DC6994430C43DC6107E08408094B4B
:10BB9000A400E418236893430B432360C106C90E35
:10BBA00001208840044908600449086010BD000075
:10BBB00000ED00E000E400E080E200E000E100E0F1
:10BBC000017928225143054A006889180522130289
:10BBD000C018026002202031887070479C19002034
:10BBE000F8B507460C46007928211D4D41434D19F3
:10BBF0002E462036B178002901D00820F8BD002C4F
:10BC000002D11849000144180CC500202860707149
:10BC1000307121463846083D00F000F9206812498D
:10BC200082001248121811606268920010180160B8
:10BC3000052338681B0206CCC0188160C2602168E9
:10BC400041622868083C002805D03868217B000B39
:10BC500040B2FFF785FF0120B0700020F8BD000062
:10BC60009C19002080C401000C0600000007005051
:10BC70003EB5074D2C69AD69009402956C46617024
:10BC8000A37001920022694600F016F83EBD000044
:10BC900080C401003EB50025069C009502956D46C6
:10BCA0006970AB700192002C01D0202200E00022CC
:10BCB000294600F001F83EBD70B50D4601792823F4
:10BCC0005943064BCC18910701D0062070BD13468E
:10BCD00001682A46204600F0C7FA70BD9C19002072
:10BCE000012181400148816070470000000500503B
:10BCF0004058002800D0012070474058002800D04C
:10BD0000012070470322120280184068084000D0CA
:10BD10000120704710B508490120087107A10020D3
:10BD2000FFF7EEFB0B48F92101710021417106215B
:10BD3000022000F057F810BD701800205265717590
:10BD4000657374696E672070726F647563742049DF
:10BD5000440D0A008619002010B507480124C4705C
:10BD600006A10020FFF7CCFB084805210471012043
:10BD700000F038F810BD000070180020526573659F
:10BD80007474696E6720494D550D0A0086190020AC
:10BD900030B50A48FF21C57D0022094C0931094B05
:10BDA000002D625007D09969437EC268D154417E0C
:10BDB000491C417630BD986930BD0000C41900208F
:10BDC00000200040002500401FB501236A46137083
:10BDD00010720348019106C8684690471FBD0000D5
:10BDE000C419002038B50A4A002311705370094C59
:10BDF0009070215CD170491C2154009314234B2175
:10BE00000548FFF747FF002801D0FFF7ADFD38BD1B
:10BE1000861900207E18002068C40100F8B50C4681
:10BE20000968224D89002048491908606168890025
:10BE3000491908602068FFF753FF6068FFF750FF5B
:10BE400019482168401C8900491908606168890007
:10BE5000491908600420FFF795F90025144F0126C1
:10BE600020793969C140C807C00F02D0002D19D010
:10BE70000FE0207831468140F9600420FFF782F915
:10BE80002068FFF72DFF0420FFF77CF96D1C092DBA
:10BE9000E6DB20798640FE600420FFF773F96068D6
:10BEA000FFF71EFFF8BD00000C0600000007005061
:10BEB0000005005070B5374C00260546A670007886
:10BEC000002837D12A7934A1FFF71AFB227937A14C
:10BED0000020FFF715FBE27839A10020FFF710FBE7
:10BEE0002879002818D0E078384D002838D06878B4
:10BEF00029780006001408434204520C2EA10020A9
:10BF0000FFF7FEFA32232A464B213148FFF7B0FEF5
:10BF10006079062812D012E0607800280BD0322316
:10BF20002A4A4B212A48FFF7A3FE024629A10020F6
:10BF3000FFF7E6FA70BD0120607070BDE670401C2E
:10BF4000607100242A5D27A10020FFF7D9FA641C44
:10BF5000E4B2172CF6D314A10020FFF7D1FA70BD7C
:10BF600020790028FBD0687829780006001408435F
:10BF70004204520C10A10020FFF7C2FA00242A5DEF
:10BF800018A10020FFF7BCFA641CE4B2172CF6D30A
:10BF9000E1E700007018002054574920455654200E
:10BFA000444F4E453A2025640D0A000072657175B4
:10BFB0006573742049443A2025640D0A000000008E
:10BFC00072657365743A2025640D0A0054190020C7
:10BFD00068C4010045727220636F64653A2025646D
:10BFE0000D0A000025642C001FB50A4B6C460FCBD0
:10BFF0000FC408480023084A69460838FFF7F0FDD7
:10C00000002801D0FFF7B0FC02480838FFF7D8FD40
:10C010001FBD000070C40100B5BE0100FFB50027C0
:10C02000FF2285B00C4605321E46A750FF2225325E
:10C03000A750FF221D32A750FF220932A750054604
:10C040002035CA1DFF32AF71FA32EF70012B0FD0CD
:10C05000012313600122226222600268002A09D0B3
:10C06000104981608068032109026118486015E069
:10C070000223EEE70146263123300391029000208F
:10C08000019000962046079B039A029900F023F83E
:10C090000028F4D1E878002800D00327384609B0FA
:10C0A000F0BD00008602000030B51C78039D94426C
:10C0B00008D205221202095D8018C1611878401C5F
:10C0C000187006E00121002D02D0C161002030BDB2
:10C0D0004161012030BDFFB50F46097881B00446AB
:10C0E000012904D0039802780A98824201D10126DE
:10C0F00000E00026FF2025300025002907D025502C
:10C10000FF201D302550FF200930255056E0FF212B
:10C1100025312046FFF7ECFD00282CD1FF211D31F1
:10C120002046FFF7E5FD002814D0FF201D302550E4
:10C13000FF2125312046FFF7DBFD00281BD10B989E
:10C1400000902046039B0A9A0499FFF7ADFF002850
:10C1500040D033E0FF2109312046FFF7C9FD002818
:10C160002CD0FF2009302550FF2125312046FFF734
:10C17000BFFD002806D0FF2025302550012060613A
:10C1800038701BE003990A980F78049ABC468742DE
:10C1900014D205231B02E3189B696746D3550A781E
:10C1A000521CD2B20A70411E8A4203D102200102FF
:10C1B000085101E0824201D001212162002E0BD002
:10C1C000FF26053631462046FFF792FD002803D0B2
:10C1D000A551002005B0F0BD0120FBE7FFB50546E5
:10C1E00087B00C460020FF21109F0531059060505C
:10C1F000FF2125316050FF211D316050FF210931A1
:10C200006050012149022E4608512036B071F0706D
:10C2100001202062A060B31D0097029320460A9A75
:10C220000999FFF741FF2868002807D00D48A8604A
:10C23000A868032109026118486010E023350A98B4
:10C240000090019729462046099B029AFFF743FF79
:10C250000028F4D1F078002801D00320059005983B
:10C260000BB0F0BD86020000F8B50446002503209F
:10C27000ED43000208188560254620352E79002EF2
:10C2800003D0A16841601120F8BD5807C017401CB9
:10C290002871180701D50620F8BDA361C1CA0C3466
:10C2A000C1C40C3A9078287050680B266060F60183
:10C2B00050788E19B06010780026183C01280ED0F6
:10C2C000002801D1980601D5012000E00020687007
:10C2D0000090937852682046FFF780FF05E06E706B
:10C2E000937852682046FFF799FE21680029D3D140
:10C2F0002E71F8BDFF2107481D310022425006482B
:10C30000828A8168895C828A521C82820348C16168
:10C310007047000000200040C419002000250040A4
:10C320001FB500216A46117010720448826801929C
:10C33000817506C8684690471FBD0000C4190020DB
:10C34000F0B5454D012185B049022846FFF7DAFCDA
:10C3500001270026414C002824D0FF212531284602
:10C36000FFF7CBFC00281DD0FF2025302E50812068
:10C370003B4980008860A07E002800D16F600221C8
:10C38000684601703749086808600390E17D684697
:10C390000172E0680190E675267606CC6846083C96
:10C3A00090472BE004212846FFF7ACFC002825D05D
:10C3B000FF2109312846FFF7A0FC00281ED0FFF717
:10C3C000E7FCE07D617E884218D1207E002808D0FD
:10C3D000627EE168E0752069E06026766676104648
:10C3E0000AE0A07E002800D16F6081201C498000F7
:10C3F0008860E675607EE168FFF7E6FCFF211D318D
:10C400002846FFF77AFC00280DD0A18AA07D814242
:10C4100002D2FFF76FFF06E0FF211D316E500028AA
:10C4200001D0FFF77DFFFF2145312846FFF765FC6E
:10C4300000280ED0FF2045302E50A07E002800D0CE
:10C440002F60E07D002804D0E675607EE168FFF78C
:10C45000BBFC05B0F0BD000000200040C419002066
:10C460000023004080240040003000400000000015
:10C470000400000003000000000068060100000046
:10C48000070000001E0000000000980103000000EB
:10C4900001000000000000000000000030313233D5
:10C4A0003435363738394142434445465465726D18
:10C4B000696E616C00000000D8C401007018002093
:10C4C0009400000004B101006CC5010004190020B3
:10C4D0004C15000020B10100000000000000000029
:10C4E000000000000000000000000000000000004C
:10C4F0005345474745522052545400000000000065
:10C500000200000002000000ACC40100E01900209D
:10C510000004000000000000000000000000000017
:10C52000000000000000000000000000000000000B
:10C530000000000000000000ACC40100E01D00206D
:10C5400010000000000000000000000000000000DB
:10C5500000000000000000000000000000000000DB
:0CC5600000000000000000000024F400B7
:040000050001B0C185
:00000001FF
